{
  "_format": "hh-sol-artifact-1",
  "contractName": "MediPortal",
  "sourceName": "contracts/MediPortal.sol",
  "abi": [
    {
      "inputs": [
        {
          "internalType": "contract IWorldID",
          "name": "_worldId",
          "type": "address"
        },
        {
          "internalType": "string",
          "name": "_appId",
          "type": "string"
        },
        {
          "internalType": "string",
          "name": "_actionId",
          "type": "string"
        }
      ],
      "stateMutability": "nonpayable",
      "type": "constructor"
    },
    {
      "inputs": [
        {
          "internalType": "uint256",
          "name": "nullifierHash",
          "type": "uint256"
        }
      ],
      "name": "DuplicateNullifier",
      "type": "error"
    },
    {
      "inputs": [
        {
          "internalType": "address",
          "name": "sender",
          "type": "address"
        },
        {
          "internalType": "uint256",
          "name": "tokenId",
          "type": "uint256"
        },
        {
          "internalType": "address",
          "name": "owner",
          "type": "address"
        }
      ],
      "name": "ERC721IncorrectOwner",
      "type": "error"
    },
    {
      "inputs": [
        {
          "internalType": "address",
          "name": "operator",
          "type": "address"
        },
        {
          "internalType": "uint256",
          "name": "tokenId",
          "type": "uint256"
        }
      ],
      "name": "ERC721InsufficientApproval",
      "type": "error"
    },
    {
      "inputs": [
        {
          "internalType": "address",
          "name": "approver",
          "type": "address"
        }
      ],
      "name": "ERC721InvalidApprover",
      "type": "error"
    },
    {
      "inputs": [
        {
          "internalType": "address",
          "name": "operator",
          "type": "address"
        }
      ],
      "name": "ERC721InvalidOperator",
      "type": "error"
    },
    {
      "inputs": [
        {
          "internalType": "address",
          "name": "owner",
          "type": "address"
        }
      ],
      "name": "ERC721InvalidOwner",
      "type": "error"
    },
    {
      "inputs": [
        {
          "internalType": "address",
          "name": "receiver",
          "type": "address"
        }
      ],
      "name": "ERC721InvalidReceiver",
      "type": "error"
    },
    {
      "inputs": [
        {
          "internalType": "address",
          "name": "sender",
          "type": "address"
        }
      ],
      "name": "ERC721InvalidSender",
      "type": "error"
    },
    {
      "inputs": [
        {
          "internalType": "uint256",
          "name": "tokenId",
          "type": "uint256"
        }
      ],
      "name": "ERC721NonexistentToken",
      "type": "error"
    },
    {
      "anonymous": false,
      "inputs": [
        {
          "indexed": true,
          "internalType": "address",
          "name": "owner",
          "type": "address"
        },
        {
          "indexed": true,
          "internalType": "address",
          "name": "approved",
          "type": "address"
        },
        {
          "indexed": true,
          "internalType": "uint256",
          "name": "tokenId",
          "type": "uint256"
        }
      ],
      "name": "Approval",
      "type": "event"
    },
    {
      "anonymous": false,
      "inputs": [
        {
          "indexed": true,
          "internalType": "address",
          "name": "owner",
          "type": "address"
        },
        {
          "indexed": true,
          "internalType": "address",
          "name": "operator",
          "type": "address"
        },
        {
          "indexed": false,
          "internalType": "bool",
          "name": "approved",
          "type": "bool"
        }
      ],
      "name": "ApprovalForAll",
      "type": "event"
    },
    {
      "anonymous": false,
      "inputs": [
        {
          "indexed": false,
          "internalType": "uint256",
          "name": "_fromTokenId",
          "type": "uint256"
        },
        {
          "indexed": false,
          "internalType": "uint256",
          "name": "_toTokenId",
          "type": "uint256"
        }
      ],
      "name": "BatchMetadataUpdate",
      "type": "event"
    },
    {
      "anonymous": false,
      "inputs": [
        {
          "indexed": false,
          "internalType": "uint256",
          "name": "_tokenId",
          "type": "uint256"
        }
      ],
      "name": "MetadataUpdate",
      "type": "event"
    },
    {
      "anonymous": false,
      "inputs": [
        {
          "indexed": false,
          "internalType": "address",
          "name": "sender",
          "type": "address"
        },
        {
          "indexed": false,
          "internalType": "uint256",
          "name": "tokenId",
          "type": "uint256"
        }
      ],
      "name": "NFTMinted",
      "type": "event"
    },
    {
      "anonymous": false,
      "inputs": [
        {
          "indexed": true,
          "internalType": "address",
          "name": "from",
          "type": "address"
        },
        {
          "indexed": true,
          "internalType": "address",
          "name": "to",
          "type": "address"
        },
        {
          "indexed": true,
          "internalType": "uint256",
          "name": "tokenId",
          "type": "uint256"
        }
      ],
      "name": "Transfer",
      "type": "event"
    },
    {
      "anonymous": false,
      "inputs": [
        {
          "indexed": false,
          "internalType": "uint256",
          "name": "nullifierHash",
          "type": "uint256"
        }
      ],
      "name": "Verified",
      "type": "event"
    },
    {
      "inputs": [
        {
          "internalType": "address",
          "name": "to",
          "type": "address"
        },
        {
          "internalType": "uint256",
          "name": "tokenId",
          "type": "uint256"
        }
      ],
      "name": "approve",
      "outputs": [],
      "stateMutability": "nonpayable",
      "type": "function"
    },
    {
      "inputs": [
        {
          "internalType": "address",
          "name": "owner",
          "type": "address"
        }
      ],
      "name": "balanceOf",
      "outputs": [
        {
          "internalType": "uint256",
          "name": "",
          "type": "uint256"
        }
      ],
      "stateMutability": "view",
      "type": "function"
    },
    {
      "inputs": [
        {
          "internalType": "uint256",
          "name": "tokenId",
          "type": "uint256"
        }
      ],
      "name": "getApproved",
      "outputs": [
        {
          "internalType": "address",
          "name": "",
          "type": "address"
        }
      ],
      "stateMutability": "view",
      "type": "function"
    },
    {
      "inputs": [
        {
          "internalType": "address",
          "name": "owner",
          "type": "address"
        },
        {
          "internalType": "address",
          "name": "operator",
          "type": "address"
        }
      ],
      "name": "isApprovedForAll",
      "outputs": [
        {
          "internalType": "bool",
          "name": "",
          "type": "bool"
        }
      ],
      "stateMutability": "view",
      "type": "function"
    },
    {
      "inputs": [
        {
          "internalType": "uint256",
          "name": "nullHash",
          "type": "uint256"
        },
        {
          "internalType": "string",
          "name": "cid",
          "type": "string"
        }
      ],
      "name": "mintMediToken",
      "outputs": [],
      "stateMutability": "nonpayable",
      "type": "function"
    },
    {
      "inputs": [],
      "name": "name",
      "outputs": [
        {
          "internalType": "string",
          "name": "",
          "type": "string"
        }
      ],
      "stateMutability": "view",
      "type": "function"
    },
    {
      "inputs": [
        {
          "internalType": "uint256",
          "name": "nullifierHash",
          "type": "uint256"
        }
      ],
      "name": "nullifierHashExists",
      "outputs": [
        {
          "internalType": "bool",
          "name": "",
          "type": "bool"
        }
      ],
      "stateMutability": "view",
      "type": "function"
    },
    {
      "inputs": [
        {
          "internalType": "uint256",
          "name": "tokenId",
          "type": "uint256"
        }
      ],
      "name": "ownerOf",
      "outputs": [
        {
          "internalType": "address",
          "name": "",
          "type": "address"
        }
      ],
      "stateMutability": "view",
      "type": "function"
    },
    {
      "inputs": [
        {
          "internalType": "address",
          "name": "from",
          "type": "address"
        },
        {
          "internalType": "address",
          "name": "to",
          "type": "address"
        },
        {
          "internalType": "uint256",
          "name": "tokenId",
          "type": "uint256"
        }
      ],
      "name": "safeTransferFrom",
      "outputs": [],
      "stateMutability": "nonpayable",
      "type": "function"
    },
    {
      "inputs": [
        {
          "internalType": "address",
          "name": "from",
          "type": "address"
        },
        {
          "internalType": "address",
          "name": "to",
          "type": "address"
        },
        {
          "internalType": "uint256",
          "name": "tokenId",
          "type": "uint256"
        },
        {
          "internalType": "bytes",
          "name": "data",
          "type": "bytes"
        }
      ],
      "name": "safeTransferFrom",
      "outputs": [],
      "stateMutability": "nonpayable",
      "type": "function"
    },
    {
      "inputs": [
        {
          "internalType": "address",
          "name": "operator",
          "type": "address"
        },
        {
          "internalType": "bool",
          "name": "approved",
          "type": "bool"
        }
      ],
      "name": "setApprovalForAll",
      "outputs": [],
      "stateMutability": "nonpayable",
      "type": "function"
    },
    {
      "inputs": [
        {
          "internalType": "bytes4",
          "name": "interfaceId",
          "type": "bytes4"
        }
      ],
      "name": "supportsInterface",
      "outputs": [
        {
          "internalType": "bool",
          "name": "",
          "type": "bool"
        }
      ],
      "stateMutability": "view",
      "type": "function"
    },
    {
      "inputs": [],
      "name": "symbol",
      "outputs": [
        {
          "internalType": "string",
          "name": "",
          "type": "string"
        }
      ],
      "stateMutability": "view",
      "type": "function"
    },
    {
      "inputs": [
        {
          "internalType": "uint256",
          "name": "tokenId",
          "type": "uint256"
        }
      ],
      "name": "tokenURI",
      "outputs": [
        {
          "internalType": "string",
          "name": "",
          "type": "string"
        }
      ],
      "stateMutability": "view",
      "type": "function"
    },
    {
      "inputs": [
        {
          "internalType": "address",
          "name": "from",
          "type": "address"
        },
        {
          "internalType": "address",
          "name": "to",
          "type": "address"
        },
        {
          "internalType": "uint256",
          "name": "tokenId",
          "type": "uint256"
        }
      ],
      "name": "transferFrom",
      "outputs": [],
      "stateMutability": "nonpayable",
      "type": "function"
    },
    {
      "inputs": [
        {
          "internalType": "address",
          "name": "signal",
          "type": "address"
        },
        {
          "internalType": "uint256",
          "name": "root",
          "type": "uint256"
        },
        {
          "internalType": "uint256",
          "name": "nullifierHash",
          "type": "uint256"
        },
        {
          "internalType": "uint256[8]",
          "name": "proof",
          "type": "uint256[8]"
        },
        {
          "internalType": "string",
          "name": "cid",
          "type": "string"
        }
      ],
      "name": "verifyAndExecute",
      "outputs": [],
      "stateMutability": "nonpayable",
      "type": "function"
    }
  ],
  "bytecode": "0x60e06040526040518060400160405280600981526020017f4d656469546f6b656e0000000000000000000000000000000000000000000000815250600890816200004a9190620006c8565b506040518060400160405280600381526020017f4d4454000000000000000000000000000000000000000000000000000000000081525060099081620000919190620006c8565b50600160c090815250348015620000a757600080fd5b5060405162003b3b38038062003b3b8339818101604052810190620000cd91906200098c565b60088054620000dc90620004b7565b80601f01602080910402602001604051908101604052809291908181526020018280546200010a90620004b7565b80156200015b5780601f106200012f576101008083540402835291602001916200015b565b820191906000526020600020905b8154815290600101906020018083116200013d57829003601f168201915b5050505050600980546200016f90620004b7565b80601f01602080910402602001604051908101604052809291908181526020018280546200019d90620004b7565b8015620001ee5780601f10620001c257610100808354040283529160200191620001ee565b820191906000526020600020905b815481529060010190602001808311620001d057829003601f168201915b50505050508160009081620002049190620006c8565b508060019081620002169190620006c8565b5050506200025f6040518060400160405280601e81526020017f4d656469506f7274616c20636f6e747261637420696e6974616c697a656400008152506200030860201b60201c565b8273ffffffffffffffffffffffffffffffffffffffff1660808173ffffffffffffffffffffffffffffffffffffffff1681525050620002f8620002c983604051602001620002ae919062000a68565b604051602081830303815290604052620003ab60201b60201c565b82604051602001620002dd92919062000aa6565b604051602081830303815290604052620003ab60201b60201c565b60a0818152505050505062000bdd565b620003a8816040516024016200031f919062000b24565b6040516020818303038152906040527f41304fac000000000000000000000000000000000000000000000000000000007bffffffffffffffffffffffffffffffffffffffffffffffffffffffff19166020820180517bffffffffffffffffffffffffffffffffffffffffffffffffffffffff8381831617835250505050620003e460201b60201c565b50565b6000600882604051602001620003c2919062000b95565b6040516020818303038152906040528051906020012060001c901c9050919050565b6200040a81620004056200040d60201b62000d40176200042e60201b60201c565b60201c565b50565b60006a636f6e736f6c652e6c6f679050600080835160208501845afa505050565b6200044260201b62001e3217819050919050565b6200044c62000bae565b565b600081519050919050565b7f4e487b7100000000000000000000000000000000000000000000000000000000600052604160045260246000fd5b7f4e487b7100000000000000000000000000000000000000000000000000000000600052602260045260246000fd5b60006002820490506001821680620004d057607f821691505b602082108103620004e657620004e562000488565b5b50919050565b60008190508160005260206000209050919050565b60006020601f8301049050919050565b600082821b905092915050565b600060088302620005507fffffffffffffffffffffffffffffffffffffffffffffffffffffffffffffffff8262000511565b6200055c868362000511565b95508019841693508086168417925050509392505050565b6000819050919050565b6000819050919050565b6000620005a9620005a36200059d8462000574565b6200057e565b62000574565b9050919050565b6000819050919050565b620005c58362000588565b620005dd620005d482620005b0565b8484546200051e565b825550505050565b600090565b620005f4620005e5565b62000601818484620005ba565b505050565b5b8181101562000629576200061d600082620005ea565b60018101905062000607565b5050565b601f82111562000678576200064281620004ec565b6200064d8462000501565b810160208510156200065d578190505b620006756200066c8562000501565b83018262000606565b50505b505050565b600082821c905092915050565b60006200069d600019846008026200067d565b1980831691505092915050565b6000620006b883836200068a565b9150826002028217905092915050565b620006d3826200044e565b67ffffffffffffffff811115620006ef57620006ee62000459565b5b620006fb8254620004b7565b620007088282856200062d565b600060209050601f8311600181146200074057600084156200072b578287015190505b620007378582620006aa565b865550620007a7565b601f1984166200075086620004ec565b60005b828110156200077a5784890151825560018201915060208501945060208101905062000753565b868310156200079a578489015162000796601f8916826200068a565b8355505b6001600288020188555050505b505050505050565b6000604051905090565b600080fd5b600080fd5b600073ffffffffffffffffffffffffffffffffffffffff82169050919050565b6000620007f082620007c3565b9050919050565b60006200080482620007e3565b9050919050565b6200081681620007f7565b81146200082257600080fd5b50565b60008151905062000836816200080b565b92915050565b600080fd5b600080fd5b6000601f19601f8301169050919050565b620008628262000846565b810181811067ffffffffffffffff8211171562000884576200088362000459565b5b80604052505050565b600062000899620007af565b9050620008a7828262000857565b919050565b600067ffffffffffffffff821115620008ca57620008c962000459565b5b620008d58262000846565b9050602081019050919050565b60005b8381101562000902578082015181840152602081019050620008e5565b60008484015250505050565b6000620009256200091f84620008ac565b6200088d565b90508281526020810184848401111562000944576200094362000841565b5b62000951848285620008e2565b509392505050565b600082601f8301126200097157620009706200083c565b5b8151620009838482602086016200090e565b91505092915050565b600080600060608486031215620009a857620009a7620007b9565b5b6000620009b88682870162000825565b935050602084015167ffffffffffffffff811115620009dc57620009db620007be565b5b620009ea8682870162000959565b925050604084015167ffffffffffffffff81111562000a0e5762000a0d620007be565b5b62000a1c8682870162000959565b9150509250925092565b600081905092915050565b600062000a3e826200044e565b62000a4a818562000a26565b935062000a5c818560208601620008e2565b80840191505092915050565b600062000a76828462000a31565b915081905092915050565b6000819050919050565b62000aa062000a9a8262000574565b62000a81565b82525050565b600062000ab4828562000a8b565b60208201915062000ac6828462000a31565b91508190509392505050565b600082825260208201905092915050565b600062000af0826200044e565b62000afc818562000ad2565b935062000b0e818560208601620008e2565b62000b198162000846565b840191505092915050565b6000602082019050818103600083015262000b40818462000ae3565b905092915050565b600081519050919050565b600081905092915050565b600062000b6b8262000b48565b62000b77818562000b53565b935062000b89818560208601620008e2565b80840191505092915050565b600062000ba3828462000b5e565b915081905092915050565b7f4e487b7100000000000000000000000000000000000000000000000000000000600052605160045260246000fd5b60805160a05160c051612f2e62000c0d60003960006105db015260006106250152600061059e0152612f2e6000f3fe608060405234801561001057600080fd5b50600436106101005760003560e01c806370a0823111610097578063b88d4fde11610066578063b88d4fde146102bd578063c87b56dd146102d9578063e985e9c514610309578063f7d35f851461033957610100565b806370a0823114610223578063814d0f0b1461025357806395d89b4114610283578063a22cb465146102a157610100565b806323b872dd116100d357806323b872dd1461019f57806342842e0e146101bb57806359dca71f146101d75780636352211e146101f357610100565b806301ffc9a71461010557806306fdde0314610135578063081812fc14610153578063095ea7b314610183575b600080fd5b61011f600480360381019061011a9190611ea8565b610355565b60405161012c9190611ef0565b60405180910390f35b61013d6103b6565b60405161014a9190611f9b565b60405180910390f35b61016d60048036038101906101689190611ff3565b610448565b60405161017a9190612061565b60405180910390f35b61019d600480360381019061019891906120a8565b610464565b005b6101b960048036038101906101b491906120e8565b61047a565b005b6101d560048036038101906101d091906120e8565b61057c565b005b6101f160048036038101906101ec9190612297565b61059c565b005b61020d60048036038101906102089190611ff3565b610730565b60405161021a9190612061565b60405180910390f35b61023d60048036038101906102389190612330565b610742565b60405161024a919061236c565b60405180910390f35b61026d60048036038101906102689190611ff3565b6107fc565b60405161027a9190611ef0565b60405180910390f35b61028b610877565b6040516102989190611f9b565b60405180910390f35b6102bb60048036038101906102b691906123b3565b610909565b005b6102d760048036038101906102d29190612494565b61091f565b005b6102f360048036038101906102ee9190611ff3565b61093c565b6040516103009190611f9b565b60405180910390f35b610323600480360381019061031e9190612517565b610a4f565b6040516103309190611ef0565b60405180910390f35b610353600480360381019061034e9190612557565b610ae3565b005b6000634906490660e01b7bffffffffffffffffffffffffffffffffffffffffffffffffffffffff1916827bffffffffffffffffffffffffffffffffffffffffffffffffffffffff191614806103af57506103ae82610d61565b5b9050919050565b6060600080546103c5906125e2565b80601f01602080910402602001604051908101604052809291908181526020018280546103f1906125e2565b801561043e5780601f106104135761010080835404028352916020019161043e565b820191906000526020600020905b81548152906001019060200180831161042157829003601f168201915b5050505050905090565b600061045382610e43565b5061045d82610ecb565b9050919050565b6104768282610471610f08565b610f10565b5050565b600073ffffffffffffffffffffffffffffffffffffffff168273ffffffffffffffffffffffffffffffffffffffff16036104ec5760006040517f64a0ae920000000000000000000000000000000000000000000000000000000081526004016104e39190612061565b60405180910390fd5b600061050083836104fb610f08565b610f22565b90508373ffffffffffffffffffffffffffffffffffffffff168173ffffffffffffffffffffffffffffffffffffffff1614610576578382826040517f64283d7b00000000000000000000000000000000000000000000000000000000815260040161056d93929190612613565b60405180910390fd5b50505050565b6105978383836040518060200160405280600081525061091f565b505050565b7f000000000000000000000000000000000000000000000000000000000000000073ffffffffffffffffffffffffffffffffffffffff16633bc778e3857f00000000000000000000000000000000000000000000000000000000000000006106228960405160200161060e9190612692565b60405160208183030381529060405261113c565b877f0000000000000000000000000000000000000000000000000000000000000000886040518763ffffffff1660e01b8152600401610666969594939291906126c7565b60006040518083038186803b15801561067e57600080fd5b505afa158015610692573d6000803e3d6000fd5b5050505084600a600085815260200190815260200160002060006101000a81548173ffffffffffffffffffffffffffffffffffffffff021916908373ffffffffffffffffffffffffffffffffffffffff1602179055507ff786e7f77ede00a02a5464f8f0555798f42ba99a4a920ef2778db8d75e4656f783604051610717919061236c565b60405180910390a16107298382610ae3565b5050505050565b600061073b82610e43565b9050919050565b60008073ffffffffffffffffffffffffffffffffffffffff168273ffffffffffffffffffffffffffffffffffffffff16036107b55760006040517f89c62b640000000000000000000000000000000000000000000000000000000081526004016107ac9190612061565b60405180910390fd5b600360008373ffffffffffffffffffffffffffffffffffffffff1673ffffffffffffffffffffffffffffffffffffffff168152602001908152602001600020549050919050565b60008073ffffffffffffffffffffffffffffffffffffffff16600a600084815260200190815260200160002060009054906101000a900473ffffffffffffffffffffffffffffffffffffffff1673ffffffffffffffffffffffffffffffffffffffff160361086d5760009050610872565b600190505b919050565b606060018054610886906125e2565b80601f01602080910402602001604051908101604052809291908181526020018280546108b2906125e2565b80156108ff5780601f106108d4576101008083540402835291602001916108ff565b820191906000526020600020905b8154815290600101906020018083116108e257829003601f168201915b5050505050905090565b61091b610914610f08565b8383611173565b5050565b61092a84848461047a565b610936848484846112e2565b50505050565b606061094782610e43565b506000600660008481526020019081526020016000208054610968906125e2565b80601f0160208091040260200160405190810160405280929190818152602001828054610994906125e2565b80156109e15780601f106109b6576101008083540402835291602001916109e1565b820191906000526020600020905b8154815290600101906020018083116109c457829003601f168201915b5050505050905060006109f2611499565b90506000815103610a07578192505050610a4a565b600082511115610a3c578082604051602001610a24929190612765565b60405160208183030381529060405292505050610a4a565b610a45846114b0565b925050505b919050565b6000600560008473ffffffffffffffffffffffffffffffffffffffff1673ffffffffffffffffffffffffffffffffffffffff16815260200190815260200160002060008373ffffffffffffffffffffffffffffffffffffffff1673ffffffffffffffffffffffffffffffffffffffff16815260200190815260200160002060009054906101000a900460ff16905092915050565b3373ffffffffffffffffffffffffffffffffffffffff16600a600084815260200190815260200160002060009054906101000a900473ffffffffffffffffffffffffffffffffffffffff1673ffffffffffffffffffffffffffffffffffffffff161480610baf5750600073ffffffffffffffffffffffffffffffffffffffff16600a600084815260200190815260200160002060009054906101000a900473ffffffffffffffffffffffffffffffffffffffff1673ffffffffffffffffffffffffffffffffffffffff16145b610bee576040517f08c379a0000000000000000000000000000000000000000000000000000000008152600401610be5906127d5565b60405180910390fd5b600b60003373ffffffffffffffffffffffffffffffffffffffff1673ffffffffffffffffffffffffffffffffffffffff16815260200190815260200160002060009054906101000a900460ff1615610c7b576040517f08c379a0000000000000000000000000000000000000000000000000000000008152600401610c7290612841565b60405180910390fd5b6000610ca582604051602001610c9191906128f9565b604051602081830303815290604052611519565b905060006007549050610cb83382611691565b600082604051602001610ccb9190612972565b6040516020818303038152906040529050610ce682826116af565b600160076000828254610cf991906129d6565b925050819055507f4cc0a9c4a99ddc700de1af2c9f916a7cbfdb71f14801ccff94061ad1ef8a80403383604051610d31929190612a0a565b60405180910390a15050505050565b60006a636f6e736f6c652e6c6f679050600080835160208501845afa505050565b60007f80ac58cd000000000000000000000000000000000000000000000000000000007bffffffffffffffffffffffffffffffffffffffffffffffffffffffff1916827bffffffffffffffffffffffffffffffffffffffffffffffffffffffff19161480610e2c57507f5b5e139f000000000000000000000000000000000000000000000000000000007bffffffffffffffffffffffffffffffffffffffffffffffffffffffff1916827bffffffffffffffffffffffffffffffffffffffffffffffffffffffff1916145b80610e3c5750610e3b8261170b565b5b9050919050565b600080610e4f83611775565b9050600073ffffffffffffffffffffffffffffffffffffffff168173ffffffffffffffffffffffffffffffffffffffff1603610ec257826040517f7e273289000000000000000000000000000000000000000000000000000000008152600401610eb9919061236c565b60405180910390fd5b80915050919050565b60006004600083815260200190815260200160002060009054906101000a900473ffffffffffffffffffffffffffffffffffffffff169050919050565b600033905090565b610f1d83838360016117b2565b505050565b600080610f2e84611775565b9050600073ffffffffffffffffffffffffffffffffffffffff168373ffffffffffffffffffffffffffffffffffffffff1614610f7057610f6f818486611977565b5b600073ffffffffffffffffffffffffffffffffffffffff168173ffffffffffffffffffffffffffffffffffffffff161461100157610fb26000856000806117b2565b6001600360008373ffffffffffffffffffffffffffffffffffffffff1673ffffffffffffffffffffffffffffffffffffffff168152602001908152602001600020600082825403925050819055505b600073ffffffffffffffffffffffffffffffffffffffff168573ffffffffffffffffffffffffffffffffffffffff1614611084576001600360008773ffffffffffffffffffffffffffffffffffffffff1673ffffffffffffffffffffffffffffffffffffffff168152602001908152602001600020600082825401925050819055505b846002600086815260200190815260200160002060006101000a81548173ffffffffffffffffffffffffffffffffffffffff021916908373ffffffffffffffffffffffffffffffffffffffff160217905550838573ffffffffffffffffffffffffffffffffffffffff168273ffffffffffffffffffffffffffffffffffffffff167fddf252ad1be2c89b69c2b068fc378daa952ba7f163c4a11628f55a4df523b3ef60405160405180910390a4809150509392505050565b60006008826040516020016111519190612a7a565b6040516020818303038152906040528051906020012060001c901c9050919050565b600073ffffffffffffffffffffffffffffffffffffffff168273ffffffffffffffffffffffffffffffffffffffff16036111e457816040517f5b08ba180000000000000000000000000000000000000000000000000000000081526004016111db9190612061565b60405180910390fd5b80600560008573ffffffffffffffffffffffffffffffffffffffff1673ffffffffffffffffffffffffffffffffffffffff16815260200190815260200160002060008473ffffffffffffffffffffffffffffffffffffffff1673ffffffffffffffffffffffffffffffffffffffff16815260200190815260200160002060006101000a81548160ff0219169083151502179055508173ffffffffffffffffffffffffffffffffffffffff168373ffffffffffffffffffffffffffffffffffffffff167f17307eab39ab6107e8899845ad3d59bd9653f200f220920489ca2b5937696c31836040516112d59190611ef0565b60405180910390a3505050565b60008373ffffffffffffffffffffffffffffffffffffffff163b1115611493578273ffffffffffffffffffffffffffffffffffffffff1663150b7a02611326610f08565b8685856040518563ffffffff1660e01b81526004016113489493929190612adb565b6020604051808303816000875af192505050801561138457506040513d601f19601f820116820180604052508101906113819190612b3c565b60015b611408573d80600081146113b4576040519150601f19603f3d011682016040523d82523d6000602084013e6113b9565b606091505b50600081510361140057836040517f64a0ae920000000000000000000000000000000000000000000000000000000081526004016113f79190612061565b60405180910390fd5b805181602001fd5b63150b7a0260e01b7bffffffffffffffffffffffffffffffffffffffffffffffffffffffff1916817bffffffffffffffffffffffffffffffffffffffffffffffffffffffff19161461149157836040517f64a0ae920000000000000000000000000000000000000000000000000000000081526004016114889190612061565b60405180910390fd5b505b50505050565b606060405180602001604052806000815250905090565b60606114bb82610e43565b5060006114c6611499565b905060008151116114e65760405180602001604052806000815250611511565b806114f084611a3b565b604051602001611501929190612765565b6040516020818303038152906040525b915050919050565b6060600082510361153b5760405180602001604052806000815250905061168c565b6000604051806060016040528060408152602001612eb9604091399050600060036002855161156a91906129d6565b6115749190612b98565b60046115809190612bc9565b9050600060208261159191906129d6565b67ffffffffffffffff8111156115aa576115a961216c565b5b6040519080825280601f01601f1916602001820160405280156115dc5781602001600182028036833780820191505090505b509050818152600183018586518101602084015b8183101561164b576003830192508251603f8160121c168501518253600182019150603f81600c1c168501518253600182019150603f8160061c168501518253600182019150603f81168501518253600182019150506115f0565b600389510660018114611665576002811461167557611680565b613d3d60f01b6002830352611680565b603d60f81b60018303525b50505050508093505050505b919050565b6116ab828260405180602001604052806000815250611b09565b5050565b806006600084815260200190815260200160002090816116cf9190612db7565b507ff8e1a15aba9398e019f0b49df1a4fde98ee17ae345cb5f6b5e2c27f5033e8ce7826040516116ff919061236c565b60405180910390a15050565b60007f01ffc9a7000000000000000000000000000000000000000000000000000000007bffffffffffffffffffffffffffffffffffffffffffffffffffffffff1916827bffffffffffffffffffffffffffffffffffffffffffffffffffffffff1916149050919050565b60006002600083815260200190815260200160002060009054906101000a900473ffffffffffffffffffffffffffffffffffffffff169050919050565b80806117eb5750600073ffffffffffffffffffffffffffffffffffffffff168273ffffffffffffffffffffffffffffffffffffffff1614155b1561191f5760006117fb84610e43565b9050600073ffffffffffffffffffffffffffffffffffffffff168373ffffffffffffffffffffffffffffffffffffffff161415801561186657508273ffffffffffffffffffffffffffffffffffffffff168173ffffffffffffffffffffffffffffffffffffffff1614155b801561187957506118778184610a4f565b155b156118bb57826040517fa9fbf51f0000000000000000000000000000000000000000000000000000000081526004016118b29190612061565b60405180910390fd5b811561191d57838573ffffffffffffffffffffffffffffffffffffffff168273ffffffffffffffffffffffffffffffffffffffff167f8c5be1e5ebec7d5bd14f71427d1e84f3dd0314c0f7b2291e5b200ac8c7c3b92560405160405180910390a45b505b836004600085815260200190815260200160002060006101000a81548173ffffffffffffffffffffffffffffffffffffffff021916908373ffffffffffffffffffffffffffffffffffffffff16021790555050505050565b611982838383611b25565b611a3657600073ffffffffffffffffffffffffffffffffffffffff168373ffffffffffffffffffffffffffffffffffffffff16036119f757806040517f7e2732890000000000000000000000000000000000000000000000000000000081526004016119ee919061236c565b60405180910390fd5b81816040517f177e802f000000000000000000000000000000000000000000000000000000008152600401611a2d929190612a0a565b60405180910390fd5b505050565b606060006001611a4a84611be6565b01905060008167ffffffffffffffff811115611a6957611a6861216c565b5b6040519080825280601f01601f191660200182016040528015611a9b5781602001600182028036833780820191505090505b509050600082602001820190505b600115611afe578080600190039150507f3031323334353637383961626364656600000000000000000000000000000000600a86061a8153600a8581611af257611af1612b69565b5b04945060008503611aa9575b819350505050919050565b611b138383611d39565b611b2060008484846112e2565b505050565b60008073ffffffffffffffffffffffffffffffffffffffff168373ffffffffffffffffffffffffffffffffffffffff1614158015611bdd57508273ffffffffffffffffffffffffffffffffffffffff168473ffffffffffffffffffffffffffffffffffffffff161480611b9e5750611b9d8484610a4f565b5b80611bdc57508273ffffffffffffffffffffffffffffffffffffffff16611bc483610ecb565b73ffffffffffffffffffffffffffffffffffffffff16145b5b90509392505050565b600080600090507a184f03e93ff9f4daa797ed6e38ed64bf6a1f0100000000000000008310611c44577a184f03e93ff9f4daa797ed6e38ed64bf6a1f0100000000000000008381611c3a57611c39612b69565b5b0492506040810190505b6d04ee2d6d415b85acef81000000008310611c81576d04ee2d6d415b85acef81000000008381611c7757611c76612b69565b5b0492506020810190505b662386f26fc100008310611cb057662386f26fc100008381611ca657611ca5612b69565b5b0492506010810190505b6305f5e1008310611cd9576305f5e1008381611ccf57611cce612b69565b5b0492506008810190505b6127108310611cfe576127108381611cf457611cf3612b69565b5b0492506004810190505b60648310611d215760648381611d1757611d16612b69565b5b0492506002810190505b600a8310611d30576001810190505b80915050919050565b600073ffffffffffffffffffffffffffffffffffffffff168273ffffffffffffffffffffffffffffffffffffffff1603611dab5760006040517f64a0ae92000000000000000000000000000000000000000000000000000000008152600401611da29190612061565b60405180910390fd5b6000611db983836000610f22565b9050600073ffffffffffffffffffffffffffffffffffffffff168173ffffffffffffffffffffffffffffffffffffffff1614611e2d5760006040517f73c6ac6e000000000000000000000000000000000000000000000000000000008152600401611e249190612061565b60405180910390fd5b505050565b611e3a612e89565b565b6000604051905090565b600080fd5b600080fd5b60007fffffffff0000000000000000000000000000000000000000000000000000000082169050919050565b611e8581611e50565b8114611e9057600080fd5b50565b600081359050611ea281611e7c565b92915050565b600060208284031215611ebe57611ebd611e46565b5b6000611ecc84828501611e93565b91505092915050565b60008115159050919050565b611eea81611ed5565b82525050565b6000602082019050611f056000830184611ee1565b92915050565b600081519050919050565b600082825260208201905092915050565b60005b83811015611f45578082015181840152602081019050611f2a565b60008484015250505050565b6000601f19601f8301169050919050565b6000611f6d82611f0b565b611f778185611f16565b9350611f87818560208601611f27565b611f9081611f51565b840191505092915050565b60006020820190508181036000830152611fb58184611f62565b905092915050565b6000819050919050565b611fd081611fbd565b8114611fdb57600080fd5b50565b600081359050611fed81611fc7565b92915050565b60006020828403121561200957612008611e46565b5b600061201784828501611fde565b91505092915050565b600073ffffffffffffffffffffffffffffffffffffffff82169050919050565b600061204b82612020565b9050919050565b61205b81612040565b82525050565b60006020820190506120766000830184612052565b92915050565b61208581612040565b811461209057600080fd5b50565b6000813590506120a28161207c565b92915050565b600080604083850312156120bf576120be611e46565b5b60006120cd85828601612093565b92505060206120de85828601611fde565b9150509250929050565b60008060006060848603121561210157612100611e46565b5b600061210f86828701612093565b935050602061212086828701612093565b925050604061213186828701611fde565b9150509250925092565b600080fd5b60008190508260206008028201111561215c5761215b61213b565b5b92915050565b600080fd5b600080fd5b7f4e487b7100000000000000000000000000000000000000000000000000000000600052604160045260246000fd5b6121a482611f51565b810181811067ffffffffffffffff821117156121c3576121c261216c565b5b80604052505050565b60006121d6611e3c565b90506121e2828261219b565b919050565b600067ffffffffffffffff8211156122025761220161216c565b5b61220b82611f51565b9050602081019050919050565b82818337600083830152505050565b600061223a612235846121e7565b6121cc565b90508281526020810184848401111561225657612255612167565b5b612261848285612218565b509392505050565b600082601f83011261227e5761227d612162565b5b813561228e848260208601612227565b91505092915050565b600080600080600061018086880312156122b4576122b3611e46565b5b60006122c288828901612093565b95505060206122d388828901611fde565b94505060406122e488828901611fde565b93505060606122f588828901612140565b92505061016086013567ffffffffffffffff81111561231757612316611e4b565b5b61232388828901612269565b9150509295509295909350565b60006020828403121561234657612345611e46565b5b600061235484828501612093565b91505092915050565b61236681611fbd565b82525050565b6000602082019050612381600083018461235d565b92915050565b61239081611ed5565b811461239b57600080fd5b50565b6000813590506123ad81612387565b92915050565b600080604083850312156123ca576123c9611e46565b5b60006123d885828601612093565b92505060206123e98582860161239e565b9150509250929050565b600067ffffffffffffffff82111561240e5761240d61216c565b5b61241782611f51565b9050602081019050919050565b6000612437612432846123f3565b6121cc565b90508281526020810184848401111561245357612452612167565b5b61245e848285612218565b509392505050565b600082601f83011261247b5761247a612162565b5b813561248b848260208601612424565b91505092915050565b600080600080608085870312156124ae576124ad611e46565b5b60006124bc87828801612093565b94505060206124cd87828801612093565b93505060406124de87828801611fde565b925050606085013567ffffffffffffffff8111156124ff576124fe611e4b565b5b61250b87828801612466565b91505092959194509250565b6000806040838503121561252e5761252d611e46565b5b600061253c85828601612093565b925050602061254d85828601612093565b9150509250929050565b6000806040838503121561256e5761256d611e46565b5b600061257c85828601611fde565b925050602083013567ffffffffffffffff81111561259d5761259c611e4b565b5b6125a985828601612269565b9150509250929050565b7f4e487b7100000000000000000000000000000000000000000000000000000000600052602260045260246000fd5b600060028204905060018216806125fa57607f821691505b60208210810361260d5761260c6125b3565b5b50919050565b60006060820190506126286000830186612052565b612635602083018561235d565b6126426040830184612052565b949350505050565b60008160601b9050919050565b60006126628261264a565b9050919050565b600061267482612657565b9050919050565b61268c61268782612040565b612669565b82525050565b600061269e828461267b565b60148201915081905092915050565b82818337505050565b6126c361010083836126ad565b5050565b60006101a0820190506126dd600083018961235d565b6126ea602083018861235d565b6126f7604083018761235d565b612704606083018661235d565b612711608083018561235d565b61271e60a08301846126b6565b979650505050505050565b600081905092915050565b600061273f82611f0b565b6127498185612729565b9350612759818560208601611f27565b80840191505092915050565b60006127718285612734565b915061277d8284612734565b91508190509392505050565b7f496e76616c696420576f726c6420494421000000000000000000000000000000600082015250565b60006127bf601183611f16565b91506127ca82612789565b602082019050919050565b600060208201905081810360008301526127ee816127b2565b9050919050565b7f50617469656e74206461746120616c7265616479206d696e7465640000000000600082015250565b600061282b601b83611f16565b9150612836826127f5565b602082019050919050565b6000602082019050818103600083015261285a8161281e565b9050919050565b7f7b22636964223a20220000000000000000000000000000000000000000000000600082015250565b6000612897600983612729565b91506128a282612861565b600982019050919050565b7f227d000000000000000000000000000000000000000000000000000000000000600082015250565b60006128e3600283612729565b91506128ee826128ad565b600282019050919050565b60006129048261288a565b91506129108284612734565b915061291b826128d6565b915081905092915050565b7f646174613a6170706c69636174696f6e2f6a736f6e3b6261736536342c000000600082015250565b600061295c601d83611f16565b915061296782612926565b602082019050919050565b6000604082019050818103600083015261298b8161294f565b9050818103602083015261299f8184611f62565b905092915050565b7f4e487b7100000000000000000000000000000000000000000000000000000000600052601160045260246000fd5b60006129e182611fbd565b91506129ec83611fbd565b9250828201905080821115612a0457612a036129a7565b5b92915050565b6000604082019050612a1f6000830185612052565b612a2c602083018461235d565b9392505050565b600081519050919050565b600081905092915050565b6000612a5482612a33565b612a5e8185612a3e565b9350612a6e818560208601611f27565b80840191505092915050565b6000612a868284612a49565b915081905092915050565b600082825260208201905092915050565b6000612aad82612a33565b612ab78185612a91565b9350612ac7818560208601611f27565b612ad081611f51565b840191505092915050565b6000608082019050612af06000830187612052565b612afd6020830186612052565b612b0a604083018561235d565b8181036060830152612b1c8184612aa2565b905095945050505050565b600081519050612b3681611e7c565b92915050565b600060208284031215612b5257612b51611e46565b5b6000612b6084828501612b27565b91505092915050565b7f4e487b7100000000000000000000000000000000000000000000000000000000600052601260045260246000fd5b6000612ba382611fbd565b9150612bae83611fbd565b925082612bbe57612bbd612b69565b5b828204905092915050565b6000612bd482611fbd565b9150612bdf83611fbd565b9250828202612bed81611fbd565b91508282048414831517612c0457612c036129a7565b5b5092915050565b60008190508160005260206000209050919050565b60006020601f8301049050919050565b600082821b905092915050565b600060088302612c6d7fffffffffffffffffffffffffffffffffffffffffffffffffffffffffffffffff82612c30565b612c778683612c30565b95508019841693508086168417925050509392505050565b6000819050919050565b6000612cb4612caf612caa84611fbd565b612c8f565b611fbd565b9050919050565b6000819050919050565b612cce83612c99565b612ce2612cda82612cbb565b848454612c3d565b825550505050565b600090565b612cf7612cea565b612d02818484612cc5565b505050565b5b81811015612d2657612d1b600082612cef565b600181019050612d08565b5050565b601f821115612d6b57612d3c81612c0b565b612d4584612c20565b81016020851015612d54578190505b612d68612d6085612c20565b830182612d07565b50505b505050565b600082821c905092915050565b6000612d8e60001984600802612d70565b1980831691505092915050565b6000612da78383612d7d565b9150826002028217905092915050565b612dc082611f0b565b67ffffffffffffffff811115612dd957612dd861216c565b5b612de382546125e2565b612dee828285612d2a565b600060209050601f831160018114612e215760008415612e0f578287015190505b612e198582612d9b565b865550612e81565b601f198416612e2f86612c0b565b60005b82811015612e5757848901518255600182019150602085019450602081019050612e32565b86831015612e745784890151612e70601f891682612d7d565b8355505b6001600288020188555050505b505050505050565b7f4e487b7100000000000000000000000000000000000000000000000000000000600052605160045260246000fdfe4142434445464748494a4b4c4d4e4f505152535455565758595a6162636465666768696a6b6c6d6e6f707172737475767778797a303132333435363738392b2fa2646970667358221220bc4b7f1a5606b69705511dfe49dbc67622c8719d33c275d042fedb45005f784464736f6c63430008180033",
  "linkReferences": {},
  "deployedLinkReferences": {}
}