{
  "_format": "hh-sol-artifact-1",
  "contractName": "MediPortal",
  "sourceName": "contracts/MediPortal.sol",
  "abi": [
    {
      "inputs": [
        {
          "internalType": "contract IWorldID",
          "name": "_worldId",
          "type": "address"
        },
        {
          "internalType": "string",
          "name": "_appId",
          "type": "string"
        },
        {
          "internalType": "string",
          "name": "_actionId",
          "type": "string"
        }
      ],
      "stateMutability": "nonpayable",
      "type": "constructor"
    },
    {
      "inputs": [
        {
          "internalType": "uint256",
          "name": "nullifierHash",
          "type": "uint256"
        }
      ],
      "name": "DuplicateNullifier",
      "type": "error"
    },
    {
      "inputs": [
        {
          "internalType": "address",
          "name": "sender",
          "type": "address"
        },
        {
          "internalType": "uint256",
          "name": "tokenId",
          "type": "uint256"
        },
        {
          "internalType": "address",
          "name": "owner",
          "type": "address"
        }
      ],
      "name": "ERC721IncorrectOwner",
      "type": "error"
    },
    {
      "inputs": [
        {
          "internalType": "address",
          "name": "operator",
          "type": "address"
        },
        {
          "internalType": "uint256",
          "name": "tokenId",
          "type": "uint256"
        }
      ],
      "name": "ERC721InsufficientApproval",
      "type": "error"
    },
    {
      "inputs": [
        {
          "internalType": "address",
          "name": "approver",
          "type": "address"
        }
      ],
      "name": "ERC721InvalidApprover",
      "type": "error"
    },
    {
      "inputs": [
        {
          "internalType": "address",
          "name": "operator",
          "type": "address"
        }
      ],
      "name": "ERC721InvalidOperator",
      "type": "error"
    },
    {
      "inputs": [
        {
          "internalType": "address",
          "name": "owner",
          "type": "address"
        }
      ],
      "name": "ERC721InvalidOwner",
      "type": "error"
    },
    {
      "inputs": [
        {
          "internalType": "address",
          "name": "receiver",
          "type": "address"
        }
      ],
      "name": "ERC721InvalidReceiver",
      "type": "error"
    },
    {
      "inputs": [
        {
          "internalType": "address",
          "name": "sender",
          "type": "address"
        }
      ],
      "name": "ERC721InvalidSender",
      "type": "error"
    },
    {
      "inputs": [
        {
          "internalType": "uint256",
          "name": "tokenId",
          "type": "uint256"
        }
      ],
      "name": "ERC721NonexistentToken",
      "type": "error"
    },
    {
      "anonymous": false,
      "inputs": [
        {
          "indexed": true,
          "internalType": "address",
          "name": "owner",
          "type": "address"
        },
        {
          "indexed": true,
          "internalType": "address",
          "name": "approved",
          "type": "address"
        },
        {
          "indexed": true,
          "internalType": "uint256",
          "name": "tokenId",
          "type": "uint256"
        }
      ],
      "name": "Approval",
      "type": "event"
    },
    {
      "anonymous": false,
      "inputs": [
        {
          "indexed": true,
          "internalType": "address",
          "name": "owner",
          "type": "address"
        },
        {
          "indexed": true,
          "internalType": "address",
          "name": "operator",
          "type": "address"
        },
        {
          "indexed": false,
          "internalType": "bool",
          "name": "approved",
          "type": "bool"
        }
      ],
      "name": "ApprovalForAll",
      "type": "event"
    },
    {
      "anonymous": false,
      "inputs": [
        {
          "indexed": false,
          "internalType": "uint256",
          "name": "_fromTokenId",
          "type": "uint256"
        },
        {
          "indexed": false,
          "internalType": "uint256",
          "name": "_toTokenId",
          "type": "uint256"
        }
      ],
      "name": "BatchMetadataUpdate",
      "type": "event"
    },
    {
      "anonymous": false,
      "inputs": [
        {
          "indexed": false,
          "internalType": "uint256",
          "name": "_tokenId",
          "type": "uint256"
        }
      ],
      "name": "MetadataUpdate",
      "type": "event"
    },
    {
      "anonymous": false,
      "inputs": [
        {
          "indexed": false,
          "internalType": "address",
          "name": "sender",
          "type": "address"
        },
        {
          "indexed": false,
          "internalType": "uint256",
          "name": "tokenId",
          "type": "uint256"
        }
      ],
      "name": "NFTMinted",
      "type": "event"
    },
    {
      "anonymous": false,
      "inputs": [
        {
          "indexed": true,
          "internalType": "address",
          "name": "from",
          "type": "address"
        },
        {
          "indexed": true,
          "internalType": "address",
          "name": "to",
          "type": "address"
        },
        {
          "indexed": true,
          "internalType": "uint256",
          "name": "tokenId",
          "type": "uint256"
        }
      ],
      "name": "Transfer",
      "type": "event"
    },
    {
      "anonymous": false,
      "inputs": [
        {
          "indexed": false,
          "internalType": "uint256",
          "name": "nullifierHash",
          "type": "uint256"
        }
      ],
      "name": "Verified",
      "type": "event"
    },
    {
      "inputs": [
        {
          "internalType": "address",
          "name": "to",
          "type": "address"
        },
        {
          "internalType": "uint256",
          "name": "tokenId",
          "type": "uint256"
        }
      ],
      "name": "approve",
      "outputs": [],
      "stateMutability": "nonpayable",
      "type": "function"
    },
    {
      "inputs": [
        {
          "internalType": "address",
          "name": "owner",
          "type": "address"
        }
      ],
      "name": "balanceOf",
      "outputs": [
        {
          "internalType": "uint256",
          "name": "",
          "type": "uint256"
        }
      ],
      "stateMutability": "view",
      "type": "function"
    },
    {
      "inputs": [
        {
          "internalType": "uint256",
          "name": "tokenId",
          "type": "uint256"
        }
      ],
      "name": "getApproved",
      "outputs": [
        {
          "internalType": "address",
          "name": "",
          "type": "address"
        }
      ],
      "stateMutability": "view",
      "type": "function"
    },
    {
      "inputs": [
        {
          "internalType": "address",
          "name": "owner",
          "type": "address"
        },
        {
          "internalType": "address",
          "name": "operator",
          "type": "address"
        }
      ],
      "name": "isApprovedForAll",
      "outputs": [
        {
          "internalType": "bool",
          "name": "",
          "type": "bool"
        }
      ],
      "stateMutability": "view",
      "type": "function"
    },
    {
      "inputs": [
        {
          "internalType": "uint256",
          "name": "nullHash",
          "type": "uint256"
        },
        {
          "internalType": "string",
          "name": "cid",
          "type": "string"
        }
      ],
      "name": "mintMediToken",
      "outputs": [],
      "stateMutability": "nonpayable",
      "type": "function"
    },
    {
      "inputs": [],
      "name": "name",
      "outputs": [
        {
          "internalType": "string",
          "name": "",
          "type": "string"
        }
      ],
      "stateMutability": "view",
      "type": "function"
    },
    {
      "inputs": [
        {
          "internalType": "uint256",
          "name": "tokenId",
          "type": "uint256"
        }
      ],
      "name": "ownerOf",
      "outputs": [
        {
          "internalType": "address",
          "name": "",
          "type": "address"
        }
      ],
      "stateMutability": "view",
      "type": "function"
    },
    {
      "inputs": [
        {
          "internalType": "address",
          "name": "from",
          "type": "address"
        },
        {
          "internalType": "address",
          "name": "to",
          "type": "address"
        },
        {
          "internalType": "uint256",
          "name": "tokenId",
          "type": "uint256"
        }
      ],
      "name": "safeTransferFrom",
      "outputs": [],
      "stateMutability": "nonpayable",
      "type": "function"
    },
    {
      "inputs": [
        {
          "internalType": "address",
          "name": "from",
          "type": "address"
        },
        {
          "internalType": "address",
          "name": "to",
          "type": "address"
        },
        {
          "internalType": "uint256",
          "name": "tokenId",
          "type": "uint256"
        },
        {
          "internalType": "bytes",
          "name": "data",
          "type": "bytes"
        }
      ],
      "name": "safeTransferFrom",
      "outputs": [],
      "stateMutability": "nonpayable",
      "type": "function"
    },
    {
      "inputs": [
        {
          "internalType": "address",
          "name": "operator",
          "type": "address"
        },
        {
          "internalType": "bool",
          "name": "approved",
          "type": "bool"
        }
      ],
      "name": "setApprovalForAll",
      "outputs": [],
      "stateMutability": "nonpayable",
      "type": "function"
    },
    {
      "inputs": [
        {
          "internalType": "bytes4",
          "name": "interfaceId",
          "type": "bytes4"
        }
      ],
      "name": "supportsInterface",
      "outputs": [
        {
          "internalType": "bool",
          "name": "",
          "type": "bool"
        }
      ],
      "stateMutability": "view",
      "type": "function"
    },
    {
      "inputs": [],
      "name": "symbol",
      "outputs": [
        {
          "internalType": "string",
          "name": "",
          "type": "string"
        }
      ],
      "stateMutability": "view",
      "type": "function"
    },
    {
      "inputs": [
        {
          "internalType": "uint256",
          "name": "tokenId",
          "type": "uint256"
        }
      ],
      "name": "tokenURI",
      "outputs": [
        {
          "internalType": "string",
          "name": "",
          "type": "string"
        }
      ],
      "stateMutability": "view",
      "type": "function"
    },
    {
      "inputs": [
        {
          "internalType": "address",
          "name": "from",
          "type": "address"
        },
        {
          "internalType": "address",
          "name": "to",
          "type": "address"
        },
        {
          "internalType": "uint256",
          "name": "tokenId",
          "type": "uint256"
        }
      ],
      "name": "transferFrom",
      "outputs": [],
      "stateMutability": "nonpayable",
      "type": "function"
    },
    {
      "inputs": [
        {
          "internalType": "address",
          "name": "signal",
          "type": "address"
        },
        {
          "internalType": "uint256",
          "name": "root",
          "type": "uint256"
        },
        {
          "internalType": "uint256",
          "name": "nullifierHash",
          "type": "uint256"
        },
        {
          "internalType": "uint256[8]",
          "name": "proof",
          "type": "uint256[8]"
        },
        {
          "internalType": "string",
          "name": "cid",
          "type": "string"
        }
      ],
      "name": "verifyAndExecute",
      "outputs": [],
      "stateMutability": "nonpayable",
      "type": "function"
    }
  ],
  "bytecode": "0x60e06040526040518060400160405280600981526020017f4d656469546f6b656e0000000000000000000000000000000000000000000000815250600890816200004a9190620006c8565b506040518060400160405280600381526020017f4d4454000000000000000000000000000000000000000000000000000000000081525060099081620000919190620006c8565b50600160c090815250348015620000a757600080fd5b5060405162003b9638038062003b968339818101604052810190620000cd91906200098c565b60088054620000dc90620004b7565b80601f01602080910402602001604051908101604052809291908181526020018280546200010a90620004b7565b80156200015b5780601f106200012f576101008083540402835291602001916200015b565b820191906000526020600020905b8154815290600101906020018083116200013d57829003601f168201915b5050505050600980546200016f90620004b7565b80601f01602080910402602001604051908101604052809291908181526020018280546200019d90620004b7565b8015620001ee5780601f10620001c257610100808354040283529160200191620001ee565b820191906000526020600020905b815481529060010190602001808311620001d057829003601f168201915b50505050508160009081620002049190620006c8565b508060019081620002169190620006c8565b5050506200025f6040518060400160405280601e81526020017f4d656469506f7274616c20636f6e747261637420696e6974616c697a656400008152506200030860201b60201c565b8273ffffffffffffffffffffffffffffffffffffffff1660808173ffffffffffffffffffffffffffffffffffffffff1681525050620002f8620002c983604051602001620002ae919062000a68565b604051602081830303815290604052620003ab60201b60201c565b82604051602001620002dd92919062000aa6565b604051602081830303815290604052620003ab60201b60201c565b60a0818152505050505062000bdd565b620003a8816040516024016200031f919062000b24565b6040516020818303038152906040527f41304fac000000000000000000000000000000000000000000000000000000007bffffffffffffffffffffffffffffffffffffffffffffffffffffffff19166020820180517bffffffffffffffffffffffffffffffffffffffffffffffffffffffff8381831617835250505050620003e460201b60201c565b50565b6000600882604051602001620003c2919062000b95565b6040516020818303038152906040528051906020012060001c901c9050919050565b6200040a81620004056200040d60201b62000d9b176200042e60201b60201c565b60201c565b50565b60006a636f6e736f6c652e6c6f679050600080835160208501845afa505050565b6200044260201b62001e8d17819050919050565b6200044c62000bae565b565b600081519050919050565b7f4e487b7100000000000000000000000000000000000000000000000000000000600052604160045260246000fd5b7f4e487b7100000000000000000000000000000000000000000000000000000000600052602260045260246000fd5b60006002820490506001821680620004d057607f821691505b602082108103620004e657620004e562000488565b5b50919050565b60008190508160005260206000209050919050565b60006020601f8301049050919050565b600082821b905092915050565b600060088302620005507fffffffffffffffffffffffffffffffffffffffffffffffffffffffffffffffff8262000511565b6200055c868362000511565b95508019841693508086168417925050509392505050565b6000819050919050565b6000819050919050565b6000620005a9620005a36200059d8462000574565b6200057e565b62000574565b9050919050565b6000819050919050565b620005c58362000588565b620005dd620005d482620005b0565b8484546200051e565b825550505050565b600090565b620005f4620005e5565b62000601818484620005ba565b505050565b5b8181101562000629576200061d600082620005ea565b60018101905062000607565b5050565b601f82111562000678576200064281620004ec565b6200064d8462000501565b810160208510156200065d578190505b620006756200066c8562000501565b83018262000606565b50505b505050565b600082821c905092915050565b60006200069d600019846008026200067d565b1980831691505092915050565b6000620006b883836200068a565b9150826002028217905092915050565b620006d3826200044e565b67ffffffffffffffff811115620006ef57620006ee62000459565b5b620006fb8254620004b7565b620007088282856200062d565b600060209050601f8311600181146200074057600084156200072b578287015190505b620007378582620006aa565b865550620007a7565b601f1984166200075086620004ec565b60005b828110156200077a5784890151825560018201915060208501945060208101905062000753565b868310156200079a578489015162000796601f8916826200068a565b8355505b6001600288020188555050505b505050505050565b6000604051905090565b600080fd5b600080fd5b600073ffffffffffffffffffffffffffffffffffffffff82169050919050565b6000620007f082620007c3565b9050919050565b60006200080482620007e3565b9050919050565b6200081681620007f7565b81146200082257600080fd5b50565b60008151905062000836816200080b565b92915050565b600080fd5b600080fd5b6000601f19601f8301169050919050565b620008628262000846565b810181811067ffffffffffffffff8211171562000884576200088362000459565b5b80604052505050565b600062000899620007af565b9050620008a7828262000857565b919050565b600067ffffffffffffffff821115620008ca57620008c962000459565b5b620008d58262000846565b9050602081019050919050565b60005b8381101562000902578082015181840152602081019050620008e5565b60008484015250505050565b6000620009256200091f84620008ac565b6200088d565b90508281526020810184848401111562000944576200094362000841565b5b62000951848285620008e2565b509392505050565b600082601f8301126200097157620009706200083c565b5b8151620009838482602086016200090e565b91505092915050565b600080600060608486031215620009a857620009a7620007b9565b5b6000620009b88682870162000825565b935050602084015167ffffffffffffffff811115620009dc57620009db620007be565b5b620009ea8682870162000959565b925050604084015167ffffffffffffffff81111562000a0e5762000a0d620007be565b5b62000a1c8682870162000959565b9150509250925092565b600081905092915050565b600062000a3e826200044e565b62000a4a818562000a26565b935062000a5c818560208601620008e2565b80840191505092915050565b600062000a76828462000a31565b915081905092915050565b6000819050919050565b62000aa062000a9a8262000574565b62000a81565b82525050565b600062000ab4828562000a8b565b60208201915062000ac6828462000a31565b91508190509392505050565b600082825260208201905092915050565b600062000af0826200044e565b62000afc818562000ad2565b935062000b0e818560208601620008e2565b62000b198162000846565b840191505092915050565b6000602082019050818103600083015262000b40818462000ae3565b905092915050565b600081519050919050565b600081905092915050565b600062000b6b8262000b48565b62000b77818562000b53565b935062000b89818560208601620008e2565b80840191505092915050565b600062000ba3828462000b5e565b915081905092915050565b7f4e487b7100000000000000000000000000000000000000000000000000000000600052605160045260246000fd5b60805160a05160c051612f8962000c0d60003960006106b1015260006106fb015260006106740152612f896000f3fe608060405234801561001057600080fd5b50600436106100f55760003560e01c80636352211e11610097578063b88d4fde11610066578063b88d4fde14610282578063c87b56dd1461029e578063e985e9c5146102ce578063f7d35f85146102fe576100f5565b80636352211e146101e857806370a082311461021857806395d89b4114610248578063a22cb46514610266576100f5565b8063095ea7b3116100d3578063095ea7b31461017857806323b872dd1461019457806342842e0e146101b057806359dca71f146101cc576100f5565b806301ffc9a7146100fa57806306fdde031461012a578063081812fc14610148575b600080fd5b610114600480360381019061010f9190611f03565b61031a565b6040516101219190611f4b565b60405180910390f35b61013261037b565b60405161013f9190611ff6565b60405180910390f35b610162600480360381019061015d919061204e565b61040d565b60405161016f91906120bc565b60405180910390f35b610192600480360381019061018d9190612103565b610429565b005b6101ae60048036038101906101a99190612143565b61043f565b005b6101ca60048036038101906101c59190612143565b610541565b005b6101e660048036038101906101e191906122f2565b610561565b005b61020260048036038101906101fd919061204e565b610806565b60405161020f91906120bc565b60405180910390f35b610232600480360381019061022d919061238b565b610818565b60405161023f91906123c7565b60405180910390f35b6102506108d2565b60405161025d9190611ff6565b60405180910390f35b610280600480360381019061027b919061240e565b610964565b005b61029c600480360381019061029791906124ef565b61097a565b005b6102b860048036038101906102b3919061204e565b610997565b6040516102c59190611ff6565b60405180910390f35b6102e860048036038101906102e39190612572565b610aaa565b6040516102f59190611f4b565b60405180910390f35b610318600480360381019061031391906125b2565b610b3e565b005b6000634906490660e01b7bffffffffffffffffffffffffffffffffffffffffffffffffffffffff1916827bffffffffffffffffffffffffffffffffffffffffffffffffffffffff19161480610374575061037382610dbc565b5b9050919050565b60606000805461038a9061263d565b80601f01602080910402602001604051908101604052809291908181526020018280546103b69061263d565b80156104035780601f106103d857610100808354040283529160200191610403565b820191906000526020600020905b8154815290600101906020018083116103e657829003601f168201915b5050505050905090565b600061041882610e9e565b5061042282610f26565b9050919050565b61043b8282610436610f63565b610f6b565b5050565b600073ffffffffffffffffffffffffffffffffffffffff168273ffffffffffffffffffffffffffffffffffffffff16036104b15760006040517f64a0ae920000000000000000000000000000000000000000000000000000000081526004016104a891906120bc565b60405180910390fd5b60006104c583836104c0610f63565b610f7d565b90508373ffffffffffffffffffffffffffffffffffffffff168173ffffffffffffffffffffffffffffffffffffffff161461053b578382826040517f64283d7b0000000000000000000000000000000000000000000000000000000081526004016105329392919061266e565b60405180910390fd5b50505050565b61055c8383836040518060200160405280600081525061097a565b505050565b600073ffffffffffffffffffffffffffffffffffffffff16600a600085815260200190815260200160002060009054906101000a900473ffffffffffffffffffffffffffffffffffffffff1673ffffffffffffffffffffffffffffffffffffffff161415801561063057508473ffffffffffffffffffffffffffffffffffffffff16600a600085815260200190815260200160002060009054906101000a900473ffffffffffffffffffffffffffffffffffffffff1673ffffffffffffffffffffffffffffffffffffffff1614155b1561067257826040517f78ffaa2600000000000000000000000000000000000000000000000000000000815260040161066991906123c7565b60405180910390fd5b7f000000000000000000000000000000000000000000000000000000000000000073ffffffffffffffffffffffffffffffffffffffff16633bc778e3857f00000000000000000000000000000000000000000000000000000000000000006106f8896040516020016106e491906126ed565b604051602081830303815290604052611197565b877f0000000000000000000000000000000000000000000000000000000000000000886040518763ffffffff1660e01b815260040161073c96959493929190612722565b60006040518083038186803b15801561075457600080fd5b505afa158015610768573d6000803e3d6000fd5b5050505084600a600085815260200190815260200160002060006101000a81548173ffffffffffffffffffffffffffffffffffffffff021916908373ffffffffffffffffffffffffffffffffffffffff1602179055507ff786e7f77ede00a02a5464f8f0555798f42ba99a4a920ef2778db8d75e4656f7836040516107ed91906123c7565b60405180910390a16107ff8382610b3e565b5050505050565b600061081182610e9e565b9050919050565b60008073ffffffffffffffffffffffffffffffffffffffff168273ffffffffffffffffffffffffffffffffffffffff160361088b5760006040517f89c62b6400000000000000000000000000000000000000000000000000000000815260040161088291906120bc565b60405180910390fd5b600360008373ffffffffffffffffffffffffffffffffffffffff1673ffffffffffffffffffffffffffffffffffffffff168152602001908152602001600020549050919050565b6060600180546108e19061263d565b80601f016020809104026020016040519081016040528092919081815260200182805461090d9061263d565b801561095a5780601f1061092f5761010080835404028352916020019161095a565b820191906000526020600020905b81548152906001019060200180831161093d57829003601f168201915b5050505050905090565b61097661096f610f63565b83836111ce565b5050565b61098584848461043f565b6109918484848461133d565b50505050565b60606109a282610e9e565b5060006006600084815260200190815260200160002080546109c39061263d565b80601f01602080910402602001604051908101604052809291908181526020018280546109ef9061263d565b8015610a3c5780601f10610a1157610100808354040283529160200191610a3c565b820191906000526020600020905b815481529060010190602001808311610a1f57829003601f168201915b505050505090506000610a4d6114f4565b90506000815103610a62578192505050610aa5565b600082511115610a97578082604051602001610a7f9291906127c0565b60405160208183030381529060405292505050610aa5565b610aa08461150b565b925050505b919050565b6000600560008473ffffffffffffffffffffffffffffffffffffffff1673ffffffffffffffffffffffffffffffffffffffff16815260200190815260200160002060008373ffffffffffffffffffffffffffffffffffffffff1673ffffffffffffffffffffffffffffffffffffffff16815260200190815260200160002060009054906101000a900460ff16905092915050565b3373ffffffffffffffffffffffffffffffffffffffff16600a600084815260200190815260200160002060009054906101000a900473ffffffffffffffffffffffffffffffffffffffff1673ffffffffffffffffffffffffffffffffffffffff161480610c0a5750600073ffffffffffffffffffffffffffffffffffffffff16600a600084815260200190815260200160002060009054906101000a900473ffffffffffffffffffffffffffffffffffffffff1673ffffffffffffffffffffffffffffffffffffffff16145b610c49576040517f08c379a0000000000000000000000000000000000000000000000000000000008152600401610c4090612830565b60405180910390fd5b600b60003373ffffffffffffffffffffffffffffffffffffffff1673ffffffffffffffffffffffffffffffffffffffff16815260200190815260200160002060009054906101000a900460ff1615610cd6576040517f08c379a0000000000000000000000000000000000000000000000000000000008152600401610ccd9061289c565b60405180910390fd5b6000610d0082604051602001610cec9190612954565b604051602081830303815290604052611574565b905060006007549050610d1333826116ec565b600082604051602001610d2691906129cd565b6040516020818303038152906040529050610d41828261170a565b600160076000828254610d549190612a31565b925050819055507f4cc0a9c4a99ddc700de1af2c9f916a7cbfdb71f14801ccff94061ad1ef8a80403383604051610d8c929190612a65565b60405180910390a15050505050565b60006a636f6e736f6c652e6c6f679050600080835160208501845afa505050565b60007f80ac58cd000000000000000000000000000000000000000000000000000000007bffffffffffffffffffffffffffffffffffffffffffffffffffffffff1916827bffffffffffffffffffffffffffffffffffffffffffffffffffffffff19161480610e8757507f5b5e139f000000000000000000000000000000000000000000000000000000007bffffffffffffffffffffffffffffffffffffffffffffffffffffffff1916827bffffffffffffffffffffffffffffffffffffffffffffffffffffffff1916145b80610e975750610e9682611766565b5b9050919050565b600080610eaa836117d0565b9050600073ffffffffffffffffffffffffffffffffffffffff168173ffffffffffffffffffffffffffffffffffffffff1603610f1d57826040517f7e273289000000000000000000000000000000000000000000000000000000008152600401610f1491906123c7565b60405180910390fd5b80915050919050565b60006004600083815260200190815260200160002060009054906101000a900473ffffffffffffffffffffffffffffffffffffffff169050919050565b600033905090565b610f78838383600161180d565b505050565b600080610f89846117d0565b9050600073ffffffffffffffffffffffffffffffffffffffff168373ffffffffffffffffffffffffffffffffffffffff1614610fcb57610fca8184866119d2565b5b600073ffffffffffffffffffffffffffffffffffffffff168173ffffffffffffffffffffffffffffffffffffffff161461105c5761100d60008560008061180d565b6001600360008373ffffffffffffffffffffffffffffffffffffffff1673ffffffffffffffffffffffffffffffffffffffff168152602001908152602001600020600082825403925050819055505b600073ffffffffffffffffffffffffffffffffffffffff168573ffffffffffffffffffffffffffffffffffffffff16146110df576001600360008773ffffffffffffffffffffffffffffffffffffffff1673ffffffffffffffffffffffffffffffffffffffff168152602001908152602001600020600082825401925050819055505b846002600086815260200190815260200160002060006101000a81548173ffffffffffffffffffffffffffffffffffffffff021916908373ffffffffffffffffffffffffffffffffffffffff160217905550838573ffffffffffffffffffffffffffffffffffffffff168273ffffffffffffffffffffffffffffffffffffffff167fddf252ad1be2c89b69c2b068fc378daa952ba7f163c4a11628f55a4df523b3ef60405160405180910390a4809150509392505050565b60006008826040516020016111ac9190612ad5565b6040516020818303038152906040528051906020012060001c901c9050919050565b600073ffffffffffffffffffffffffffffffffffffffff168273ffffffffffffffffffffffffffffffffffffffff160361123f57816040517f5b08ba1800000000000000000000000000000000000000000000000000000000815260040161123691906120bc565b60405180910390fd5b80600560008573ffffffffffffffffffffffffffffffffffffffff1673ffffffffffffffffffffffffffffffffffffffff16815260200190815260200160002060008473ffffffffffffffffffffffffffffffffffffffff1673ffffffffffffffffffffffffffffffffffffffff16815260200190815260200160002060006101000a81548160ff0219169083151502179055508173ffffffffffffffffffffffffffffffffffffffff168373ffffffffffffffffffffffffffffffffffffffff167f17307eab39ab6107e8899845ad3d59bd9653f200f220920489ca2b5937696c31836040516113309190611f4b565b60405180910390a3505050565b60008373ffffffffffffffffffffffffffffffffffffffff163b11156114ee578273ffffffffffffffffffffffffffffffffffffffff1663150b7a02611381610f63565b8685856040518563ffffffff1660e01b81526004016113a39493929190612b36565b6020604051808303816000875af19250505080156113df57506040513d601f19601f820116820180604052508101906113dc9190612b97565b60015b611463573d806000811461140f576040519150601f19603f3d011682016040523d82523d6000602084013e611414565b606091505b50600081510361145b57836040517f64a0ae9200000000000000000000000000000000000000000000000000000000815260040161145291906120bc565b60405180910390fd5b805181602001fd5b63150b7a0260e01b7bffffffffffffffffffffffffffffffffffffffffffffffffffffffff1916817bffffffffffffffffffffffffffffffffffffffffffffffffffffffff1916146114ec57836040517f64a0ae920000000000000000000000000000000000000000000000000000000081526004016114e391906120bc565b60405180910390fd5b505b50505050565b606060405180602001604052806000815250905090565b606061151682610e9e565b5060006115216114f4565b90506000815111611541576040518060200160405280600081525061156c565b8061154b84611a96565b60405160200161155c9291906127c0565b6040516020818303038152906040525b915050919050565b60606000825103611596576040518060200160405280600081525090506116e7565b6000604051806060016040528060408152602001612f1460409139905060006003600285516115c59190612a31565b6115cf9190612bf3565b60046115db9190612c24565b905060006020826115ec9190612a31565b67ffffffffffffffff811115611605576116046121c7565b5b6040519080825280601f01601f1916602001820160405280156116375781602001600182028036833780820191505090505b509050818152600183018586518101602084015b818310156116a6576003830192508251603f8160121c168501518253600182019150603f81600c1c168501518253600182019150603f8160061c168501518253600182019150603f811685015182536001820191505061164b565b6003895106600181146116c057600281146116d0576116db565b613d3d60f01b60028303526116db565b603d60f81b60018303525b50505050508093505050505b919050565b611706828260405180602001604052806000815250611b64565b5050565b8060066000848152602001908152602001600020908161172a9190612e12565b507ff8e1a15aba9398e019f0b49df1a4fde98ee17ae345cb5f6b5e2c27f5033e8ce78260405161175a91906123c7565b60405180910390a15050565b60007f01ffc9a7000000000000000000000000000000000000000000000000000000007bffffffffffffffffffffffffffffffffffffffffffffffffffffffff1916827bffffffffffffffffffffffffffffffffffffffffffffffffffffffff1916149050919050565b60006002600083815260200190815260200160002060009054906101000a900473ffffffffffffffffffffffffffffffffffffffff169050919050565b80806118465750600073ffffffffffffffffffffffffffffffffffffffff168273ffffffffffffffffffffffffffffffffffffffff1614155b1561197a57600061185684610e9e565b9050600073ffffffffffffffffffffffffffffffffffffffff168373ffffffffffffffffffffffffffffffffffffffff16141580156118c157508273ffffffffffffffffffffffffffffffffffffffff168173ffffffffffffffffffffffffffffffffffffffff1614155b80156118d457506118d28184610aaa565b155b1561191657826040517fa9fbf51f00000000000000000000000000000000000000000000000000000000815260040161190d91906120bc565b60405180910390fd5b811561197857838573ffffffffffffffffffffffffffffffffffffffff168273ffffffffffffffffffffffffffffffffffffffff167f8c5be1e5ebec7d5bd14f71427d1e84f3dd0314c0f7b2291e5b200ac8c7c3b92560405160405180910390a45b505b836004600085815260200190815260200160002060006101000a81548173ffffffffffffffffffffffffffffffffffffffff021916908373ffffffffffffffffffffffffffffffffffffffff16021790555050505050565b6119dd838383611b80565b611a9157600073ffffffffffffffffffffffffffffffffffffffff168373ffffffffffffffffffffffffffffffffffffffff1603611a5257806040517f7e273289000000000000000000000000000000000000000000000000000000008152600401611a4991906123c7565b60405180910390fd5b81816040517f177e802f000000000000000000000000000000000000000000000000000000008152600401611a88929190612a65565b60405180910390fd5b505050565b606060006001611aa584611c41565b01905060008167ffffffffffffffff811115611ac457611ac36121c7565b5b6040519080825280601f01601f191660200182016040528015611af65781602001600182028036833780820191505090505b509050600082602001820190505b600115611b59578080600190039150507f3031323334353637383961626364656600000000000000000000000000000000600a86061a8153600a8581611b4d57611b4c612bc4565b5b04945060008503611b04575b819350505050919050565b611b6e8383611d94565b611b7b600084848461133d565b505050565b60008073ffffffffffffffffffffffffffffffffffffffff168373ffffffffffffffffffffffffffffffffffffffff1614158015611c3857508273ffffffffffffffffffffffffffffffffffffffff168473ffffffffffffffffffffffffffffffffffffffff161480611bf95750611bf88484610aaa565b5b80611c3757508273ffffffffffffffffffffffffffffffffffffffff16611c1f83610f26565b73ffffffffffffffffffffffffffffffffffffffff16145b5b90509392505050565b600080600090507a184f03e93ff9f4daa797ed6e38ed64bf6a1f0100000000000000008310611c9f577a184f03e93ff9f4daa797ed6e38ed64bf6a1f0100000000000000008381611c9557611c94612bc4565b5b0492506040810190505b6d04ee2d6d415b85acef81000000008310611cdc576d04ee2d6d415b85acef81000000008381611cd257611cd1612bc4565b5b0492506020810190505b662386f26fc100008310611d0b57662386f26fc100008381611d0157611d00612bc4565b5b0492506010810190505b6305f5e1008310611d34576305f5e1008381611d2a57611d29612bc4565b5b0492506008810190505b6127108310611d59576127108381611d4f57611d4e612bc4565b5b0492506004810190505b60648310611d7c5760648381611d7257611d71612bc4565b5b0492506002810190505b600a8310611d8b576001810190505b80915050919050565b600073ffffffffffffffffffffffffffffffffffffffff168273ffffffffffffffffffffffffffffffffffffffff1603611e065760006040517f64a0ae92000000000000000000000000000000000000000000000000000000008152600401611dfd91906120bc565b60405180910390fd5b6000611e1483836000610f7d565b9050600073ffffffffffffffffffffffffffffffffffffffff168173ffffffffffffffffffffffffffffffffffffffff1614611e885760006040517f73c6ac6e000000000000000000000000000000000000000000000000000000008152600401611e7f91906120bc565b60405180910390fd5b505050565b611e95612ee4565b565b6000604051905090565b600080fd5b600080fd5b60007fffffffff0000000000000000000000000000000000000000000000000000000082169050919050565b611ee081611eab565b8114611eeb57600080fd5b50565b600081359050611efd81611ed7565b92915050565b600060208284031215611f1957611f18611ea1565b5b6000611f2784828501611eee565b91505092915050565b60008115159050919050565b611f4581611f30565b82525050565b6000602082019050611f606000830184611f3c565b92915050565b600081519050919050565b600082825260208201905092915050565b60005b83811015611fa0578082015181840152602081019050611f85565b60008484015250505050565b6000601f19601f8301169050919050565b6000611fc882611f66565b611fd28185611f71565b9350611fe2818560208601611f82565b611feb81611fac565b840191505092915050565b600060208201905081810360008301526120108184611fbd565b905092915050565b6000819050919050565b61202b81612018565b811461203657600080fd5b50565b60008135905061204881612022565b92915050565b60006020828403121561206457612063611ea1565b5b600061207284828501612039565b91505092915050565b600073ffffffffffffffffffffffffffffffffffffffff82169050919050565b60006120a68261207b565b9050919050565b6120b68161209b565b82525050565b60006020820190506120d160008301846120ad565b92915050565b6120e08161209b565b81146120eb57600080fd5b50565b6000813590506120fd816120d7565b92915050565b6000806040838503121561211a57612119611ea1565b5b6000612128858286016120ee565b925050602061213985828601612039565b9150509250929050565b60008060006060848603121561215c5761215b611ea1565b5b600061216a868287016120ee565b935050602061217b868287016120ee565b925050604061218c86828701612039565b9150509250925092565b600080fd5b6000819050826020600802820111156121b7576121b6612196565b5b92915050565b600080fd5b600080fd5b7f4e487b7100000000000000000000000000000000000000000000000000000000600052604160045260246000fd5b6121ff82611fac565b810181811067ffffffffffffffff8211171561221e5761221d6121c7565b5b80604052505050565b6000612231611e97565b905061223d82826121f6565b919050565b600067ffffffffffffffff82111561225d5761225c6121c7565b5b61226682611fac565b9050602081019050919050565b82818337600083830152505050565b600061229561229084612242565b612227565b9050828152602081018484840111156122b1576122b06121c2565b5b6122bc848285612273565b509392505050565b600082601f8301126122d9576122d86121bd565b5b81356122e9848260208601612282565b91505092915050565b6000806000806000610180868803121561230f5761230e611ea1565b5b600061231d888289016120ee565b955050602061232e88828901612039565b945050604061233f88828901612039565b93505060606123508882890161219b565b92505061016086013567ffffffffffffffff81111561237257612371611ea6565b5b61237e888289016122c4565b9150509295509295909350565b6000602082840312156123a1576123a0611ea1565b5b60006123af848285016120ee565b91505092915050565b6123c181612018565b82525050565b60006020820190506123dc60008301846123b8565b92915050565b6123eb81611f30565b81146123f657600080fd5b50565b600081359050612408816123e2565b92915050565b6000806040838503121561242557612424611ea1565b5b6000612433858286016120ee565b9250506020612444858286016123f9565b9150509250929050565b600067ffffffffffffffff821115612469576124686121c7565b5b61247282611fac565b9050602081019050919050565b600061249261248d8461244e565b612227565b9050828152602081018484840111156124ae576124ad6121c2565b5b6124b9848285612273565b509392505050565b600082601f8301126124d6576124d56121bd565b5b81356124e684826020860161247f565b91505092915050565b6000806000806080858703121561250957612508611ea1565b5b6000612517878288016120ee565b9450506020612528878288016120ee565b935050604061253987828801612039565b925050606085013567ffffffffffffffff81111561255a57612559611ea6565b5b612566878288016124c1565b91505092959194509250565b6000806040838503121561258957612588611ea1565b5b6000612597858286016120ee565b92505060206125a8858286016120ee565b9150509250929050565b600080604083850312156125c9576125c8611ea1565b5b60006125d785828601612039565b925050602083013567ffffffffffffffff8111156125f8576125f7611ea6565b5b612604858286016122c4565b9150509250929050565b7f4e487b7100000000000000000000000000000000000000000000000000000000600052602260045260246000fd5b6000600282049050600182168061265557607f821691505b6020821081036126685761266761260e565b5b50919050565b600060608201905061268360008301866120ad565b61269060208301856123b8565b61269d60408301846120ad565b949350505050565b60008160601b9050919050565b60006126bd826126a5565b9050919050565b60006126cf826126b2565b9050919050565b6126e76126e28261209b565b6126c4565b82525050565b60006126f982846126d6565b60148201915081905092915050565b82818337505050565b61271e6101008383612708565b5050565b60006101a08201905061273860008301896123b8565b61274560208301886123b8565b61275260408301876123b8565b61275f60608301866123b8565b61276c60808301856123b8565b61277960a0830184612711565b979650505050505050565b600081905092915050565b600061279a82611f66565b6127a48185612784565b93506127b4818560208601611f82565b80840191505092915050565b60006127cc828561278f565b91506127d8828461278f565b91508190509392505050565b7f496e76616c696420576f726c6420494421000000000000000000000000000000600082015250565b600061281a601183611f71565b9150612825826127e4565b602082019050919050565b600060208201905081810360008301526128498161280d565b9050919050565b7f50617469656e74206461746120616c7265616479206d696e7465640000000000600082015250565b6000612886601b83611f71565b915061289182612850565b602082019050919050565b600060208201905081810360008301526128b581612879565b9050919050565b7f7b22636964223a20220000000000000000000000000000000000000000000000600082015250565b60006128f2600983612784565b91506128fd826128bc565b600982019050919050565b7f227d000000000000000000000000000000000000000000000000000000000000600082015250565b600061293e600283612784565b915061294982612908565b600282019050919050565b600061295f826128e5565b915061296b828461278f565b915061297682612931565b915081905092915050565b7f646174613a6170706c69636174696f6e2f6a736f6e3b6261736536342c000000600082015250565b60006129b7601d83611f71565b91506129c282612981565b602082019050919050565b600060408201905081810360008301526129e6816129aa565b905081810360208301526129fa8184611fbd565b905092915050565b7f4e487b7100000000000000000000000000000000000000000000000000000000600052601160045260246000fd5b6000612a3c82612018565b9150612a4783612018565b9250828201905080821115612a5f57612a5e612a02565b5b92915050565b6000604082019050612a7a60008301856120ad565b612a8760208301846123b8565b9392505050565b600081519050919050565b600081905092915050565b6000612aaf82612a8e565b612ab98185612a99565b9350612ac9818560208601611f82565b80840191505092915050565b6000612ae18284612aa4565b915081905092915050565b600082825260208201905092915050565b6000612b0882612a8e565b612b128185612aec565b9350612b22818560208601611f82565b612b2b81611fac565b840191505092915050565b6000608082019050612b4b60008301876120ad565b612b5860208301866120ad565b612b6560408301856123b8565b8181036060830152612b778184612afd565b905095945050505050565b600081519050612b9181611ed7565b92915050565b600060208284031215612bad57612bac611ea1565b5b6000612bbb84828501612b82565b91505092915050565b7f4e487b7100000000000000000000000000000000000000000000000000000000600052601260045260246000fd5b6000612bfe82612018565b9150612c0983612018565b925082612c1957612c18612bc4565b5b828204905092915050565b6000612c2f82612018565b9150612c3a83612018565b9250828202612c4881612018565b91508282048414831517612c5f57612c5e612a02565b5b5092915050565b60008190508160005260206000209050919050565b60006020601f8301049050919050565b600082821b905092915050565b600060088302612cc87fffffffffffffffffffffffffffffffffffffffffffffffffffffffffffffffff82612c8b565b612cd28683612c8b565b95508019841693508086168417925050509392505050565b6000819050919050565b6000612d0f612d0a612d0584612018565b612cea565b612018565b9050919050565b6000819050919050565b612d2983612cf4565b612d3d612d3582612d16565b848454612c98565b825550505050565b600090565b612d52612d45565b612d5d818484612d20565b505050565b5b81811015612d8157612d76600082612d4a565b600181019050612d63565b5050565b601f821115612dc657612d9781612c66565b612da084612c7b565b81016020851015612daf578190505b612dc3612dbb85612c7b565b830182612d62565b50505b505050565b600082821c905092915050565b6000612de960001984600802612dcb565b1980831691505092915050565b6000612e028383612dd8565b9150826002028217905092915050565b612e1b82611f66565b67ffffffffffffffff811115612e3457612e336121c7565b5b612e3e825461263d565b612e49828285612d85565b600060209050601f831160018114612e7c5760008415612e6a578287015190505b612e748582612df6565b865550612edc565b601f198416612e8a86612c66565b60005b82811015612eb257848901518255600182019150602085019450602081019050612e8d565b86831015612ecf5784890151612ecb601f891682612dd8565b8355505b6001600288020188555050505b505050505050565b7f4e487b7100000000000000000000000000000000000000000000000000000000600052605160045260246000fdfe4142434445464748494a4b4c4d4e4f505152535455565758595a6162636465666768696a6b6c6d6e6f707172737475767778797a303132333435363738392b2fa2646970667358221220815f99bf8344e9fa107cc26d119ba38e3e82ddac6a18b636a4c8a6dedd7aa03764736f6c63430008180033",
  "linkReferences": {},
  "deployedLinkReferences": {}
}